{
    "connectBlocks": {
        "syncRanges": [{ "lower": 211, "upper": 211 }],
        "blocks": {
            "211": {
                "height": 211,
                "hash": "00000011d6202b031df083700a5c11138bc05d8eec7e01757fc816974dc85c78",
                "noTxs": 6,
                "txDetails": [
                {
                    "hex": "0100000002a8cde69eb2f59b0acb64eda8fbc20bcf9002a8979d56eede0033dfa678bf0a7b000000004847304402201a844fff08ad68ff9ff265f9374805906ee80ce6c0b0b54587c1905c5a9014f00220560753e4ea6d289a3ac3c3a7b15886653977b684f2129e59702d92871b86cefc01fffffffff17df604dfddc3279f3177b3cd2c38bd98933dedf222e7ed01ed81a3b526cdfb00000000484730440220716a0d84b968f64584b4b58eeed931af0633ad09759b2df523bf7d3ae97ed17b022047120b87af565f5d64a37f98a3998a6007f64ec6f8b97c3ff09e11d88d60c0ca01ffffffff020010a5d4e80000001976a9140cd536473e2d947b42d560aa64fd596e5ee6b3b888ac0cd5f505000000001976a914244e5faeeb82a8cdba0589c68daba4a70b3805d288ac00000000",
                    "txid": "82488b33ee38a06013c396256af6a2555b7d5535b50382a0a6b4834a7679fc5b",
                    "version": 1,
                    "locktime": 0,
                    "vin": [
                    {
                        "txid": "7b0abf78a6df3300deee569d97a80290cf0bc2fba8ed64cb0a9bf5b29ee6cda8",
                        "vout": 0,
                        "scriptSig": {
                            "asm": "304402201a844fff08ad68ff9ff265f9374805906ee80ce6c0b0b54587c1905c5a9014f00220560753e4ea6d289a3ac3c3a7b15886653977b684f2129e59702d92871b86cefc01",
                            "hex": "47304402201a844fff08ad68ff9ff265f9374805906ee80ce6c0b0b54587c1905c5a9014f00220560753e4ea6d289a3ac3c3a7b15886653977b684f2129e59702d92871b86cefc01"
                        },
                        "sequence": 4294967295
                    },
                    {
                        "txid": "fbcd26b5a381ed01ede722f2ed3d9398bd382ccdb377319f27c3dddf04f67df1",
                        "vout": 0,
                        "scriptSig": {
                            "asm": "30440220716a0d84b968f64584b4b58eeed931af0633ad09759b2df523bf7d3ae97ed17b022047120b87af565f5d64a37f98a3998a6007f64ec6f8b97c3ff09e11d88d60c0ca01",
                            "hex": "4730440220716a0d84b968f64584b4b58eeed931af0633ad09759b2df523bf7d3ae97ed17b022047120b87af565f5d64a37f98a3998a6007f64ec6f8b97c3ff09e11d88d60c0ca01"
                        },
                        "sequence": 4294967295
                    }
                    ],
                    "vout": [
                    {
                        "value": 10000,
                        "n": 0,
                        "scriptPubKey": {
                            "asm": "OP_DUP OP_HASH160 0cd536473e2d947b42d560aa64fd596e5ee6b3b8 OP_EQUALVERIFY OP_CHECKSIG",
                            "hex": "76a9140cd536473e2d947b42d560aa64fd596e5ee6b3b888ac",
                            "reqSigs": 1,
                            "type": "pubkeyhash",
                            "addresses": [
                                "CHdk6aGZdWwJYsVFU6yeqtwWpa1TQKA3wY"
                            ]
                        }
                    },
                    {
                        "value": 0.9999694,
                        "n": 1,
                        "scriptPubKey": {
                            "asm": "OP_DUP OP_HASH160 244e5faeeb82a8cdba0589c68daba4a70b3805d2 OP_EQUALVERIFY OP_CHECKSIG",
                            "hex": "76a914244e5faeeb82a8cdba0589c68daba4a70b3805d288ac",
                            "reqSigs": 1,
                            "type": "pubkeyhash",
                            "addresses": [
                                "CKmrnT9fBYDPpD4yeyjw2rtU1qrH3jivYJ"
                            ]
                        }
                    }
                    ],
                    "blockhash": "00000011d6202b031df083700a5c11138bc05d8eec7e01757fc816974dc85c78",
                    "time": 1574497652,
                    "blocktime": 1574497652,
                    "confirmations": 0
                }
                ]
            }
        }
    },
        "handleFork": {
            "syncRanges": [{ "lower":211 , "upper": 211 }],
            "fakeBlocks": {
                "211": {
                    "height": 211,
                    "hash": "000000161ec43eb5b81cb89c12b70790bbf57030fd1f47f3e3ab1c56907377cf"
                }
            },
            "realBlocks": {
                "211": {
                    "height": 211,
                    "hash": "00000011d6202b031df083700a5c11138bc05d8eec7e01757fc816974dc85c78"
                }
            }
        }
}
